{
  "_format": "hh-sol-artifact-1",
  "contractName": "EtherStaking",
  "sourceName": "contracts/StakingEther.sol",
  "abi": [
    {
      "inputs": [],
      "stateMutability": "payable",
      "type": "constructor"
    },
    {
      "anonymous": false,
      "inputs": [
        {
          "indexed": true,
          "internalType": "address",
          "name": "user",
          "type": "address"
        },
        {
          "indexed": false,
          "internalType": "uint256",
          "name": "amount",
          "type": "uint256"
        },
        {
          "indexed": false,
          "internalType": "uint256",
          "name": "stakingTime",
          "type": "uint256"
        }
      ],
      "name": "StartStaking",
      "type": "event"
    },
    {
      "anonymous": false,
      "inputs": [
        {
          "indexed": true,
          "internalType": "address",
          "name": "user",
          "type": "address"
        },
        {
          "indexed": false,
          "internalType": "uint256",
          "name": "amount",
          "type": "uint256"
        },
        {
          "indexed": false,
          "internalType": "uint256",
          "name": "withdrawnTime",
          "type": "uint256"
        }
      ],
      "name": "WithdrawnConfirmation",
      "type": "event"
    },
    {
      "inputs": [
        {
          "internalType": "uint256",
          "name": "amount",
          "type": "uint256"
        },
        {
          "internalType": "uint256",
          "name": "_stakingTime",
          "type": "uint256"
        }
      ],
      "name": "calculateReward",
      "outputs": [
        {
          "internalType": "uint256",
          "name": "",
          "type": "uint256"
        }
      ],
      "stateMutability": "pure",
      "type": "function"
    },
    {
      "inputs": [],
      "name": "rewardBalance",
      "outputs": [
        {
          "internalType": "uint256",
          "name": "",
          "type": "uint256"
        }
      ],
      "stateMutability": "view",
      "type": "function"
    },
    {
      "inputs": [
        {
          "internalType": "uint256",
          "name": "_stakingTime",
          "type": "uint256"
        }
      ],
      "name": "stakeEther",
      "outputs": [],
      "stateMutability": "payable",
      "type": "function"
    },
    {
      "inputs": [
        {
          "internalType": "address",
          "name": "",
          "type": "address"
        }
      ],
      "name": "stakingInfo",
      "outputs": [
        {
          "internalType": "uint256",
          "name": "balance",
          "type": "uint256"
        },
        {
          "internalType": "uint256",
          "name": "Staketime",
          "type": "uint256"
        },
        {
          "internalType": "uint256",
          "name": "Stakereward",
          "type": "uint256"
        }
      ],
      "stateMutability": "view",
      "type": "function"
    },
    {
      "inputs": [],
      "name": "withdrawal",
      "outputs": [],
      "stateMutability": "nonpayable",
      "type": "function"
    }
  ],
  "bytecode": "0x60806040523460016000828254610016919061005b565b9250508190555061008f565b6000819050919050565b7f4e487b7100000000000000000000000000000000000000000000000000000000600052601160045260246000fd5b600061006682610022565b915061007183610022565b92508282019050808211156100895761008861002c565b5b92915050565b610d0f8061009e6000396000f3fe60806040526004361061004a5760003560e01c806313ed08461461004f57806394eecb501461008c578063aa5c3ab4146100cb578063d4e93292146100f6578063e4f908411461010d575b600080fd5b34801561005b57600080fd5b506100766004803603810190610071919061073f565b610129565b604051610083919061078e565b60405180910390f35b34801561009857600080fd5b506100b360048036038101906100ae9190610807565b610159565b6040516100c293929190610834565b60405180910390f35b3480156100d757600080fd5b506100e0610183565b6040516100ed919061078e565b60405180910390f35b34801561010257600080fd5b5061010b610189565b005b6101276004803603810190610122919061086b565b61057c565b005b6000806301e133809050600081848661014291906108c7565b61014c9190610938565b9050809250505092915050565b60006020528060005260406000206000915090508060000154908060010154908060020154905083565b60015481565b60008060003373ffffffffffffffffffffffffffffffffffffffff1673ffffffffffffffffffffffffffffffffffffffff168152602001908152602001600020600001541161020d576040517f08c379a0000000000000000000000000000000000000000000000000000000008152600401610204906109c6565b60405180910390fd5b6000803373ffffffffffffffffffffffffffffffffffffffff1673ffffffffffffffffffffffffffffffffffffffff16815260200190815260200160002060010154421015610291576040517f08c379a000000000000000000000000000000000000000000000000000000000815260040161028890610a32565b60405180910390fd5b60008060003373ffffffffffffffffffffffffffffffffffffffff1673ffffffffffffffffffffffffffffffffffffffff1681526020019081526020016000206000015411610315576040517f08c379a000000000000000000000000000000000000000000000000000000000815260040161030c90610a9e565b60405180910390fd5b60008060003373ffffffffffffffffffffffffffffffffffffffff1673ffffffffffffffffffffffffffffffffffffffff168152602001908152602001600020600201546000803373ffffffffffffffffffffffffffffffffffffffff1673ffffffffffffffffffffffffffffffffffffffff168152602001908152602001600020600001546103a59190610abe565b905060008060003373ffffffffffffffffffffffffffffffffffffffff1673ffffffffffffffffffffffffffffffffffffffff1681526020019081526020016000206000018190555060008060003373ffffffffffffffffffffffffffffffffffffffff1673ffffffffffffffffffffffffffffffffffffffff1681526020019081526020016000206001018190555060008060003373ffffffffffffffffffffffffffffffffffffffff1673ffffffffffffffffffffffffffffffffffffffff1681526020019081526020016000206002018190555060003373ffffffffffffffffffffffffffffffffffffffff16826040516104a290610b23565b60006040518083038185875af1925050503d80600081146104df576040519150601f19603f3d011682016040523d82523d6000602084013e6104e4565b606091505b5050905080610528576040517f08c379a000000000000000000000000000000000000000000000000000000000815260040161051f90610b84565b60405180910390fd5b3373ffffffffffffffffffffffffffffffffffffffff167f9e8910139475c7651e013660ba1e4712705ab7951a44d774fe2fdd64bcab7e0b8342604051610570929190610ba4565b60405180910390a25050565b600034116105bf576040517f08c379a00000000000000000000000000000000000000000000000000000000081526004016105b690610c19565b60405180910390fd5b60006105cb3483610129565b9050806001541015610612576040517f08c379a000000000000000000000000000000000000000000000000000000000815260040161060990610c85565b60405180910390fd5b80600160008282546106249190610ca5565b92505081905550604051806060016040528034815260200183426106489190610abe565b8152602001828152506000803373ffffffffffffffffffffffffffffffffffffffff1673ffffffffffffffffffffffffffffffffffffffff1681526020019081526020016000206000820151816000015560208201518160010155604082015181600201559050503373ffffffffffffffffffffffffffffffffffffffff167f770220af1c9e120c1375b3c3785dd5bdb8371fa98c7e83537933bb116fee490e34846040516106f8929190610ba4565b60405180910390a25050565b600080fd5b6000819050919050565b61071c81610709565b811461072757600080fd5b50565b60008135905061073981610713565b92915050565b6000806040838503121561075657610755610704565b5b60006107648582860161072a565b92505060206107758582860161072a565b9150509250929050565b61078881610709565b82525050565b60006020820190506107a3600083018461077f565b92915050565b600073ffffffffffffffffffffffffffffffffffffffff82169050919050565b60006107d4826107a9565b9050919050565b6107e4816107c9565b81146107ef57600080fd5b50565b600081359050610801816107db565b92915050565b60006020828403121561081d5761081c610704565b5b600061082b848285016107f2565b91505092915050565b6000606082019050610849600083018661077f565b610856602083018561077f565b610863604083018461077f565b949350505050565b60006020828403121561088157610880610704565b5b600061088f8482850161072a565b91505092915050565b7f4e487b7100000000000000000000000000000000000000000000000000000000600052601160045260246000fd5b60006108d282610709565b91506108dd83610709565b92508282026108eb81610709565b9150828204841483151761090257610901610898565b5b5092915050565b7f4e487b7100000000000000000000000000000000000000000000000000000000600052601260045260246000fd5b600061094382610709565b915061094e83610709565b92508261095e5761095d610909565b5b828204905092915050565b600082825260208201905092915050565b7f4e6f2045746820666f72207769746864726177616c0000000000000000000000600082015250565b60006109b0601583610969565b91506109bb8261097a565b602082019050919050565b600060208201905081810360008301526109df816109a3565b9050919050565b7f5374616b696e6720696e2050726f677265737300000000000000000000000000600082015250565b6000610a1c601383610969565b9150610a27826109e6565b602082019050919050565b60006020820190508181036000830152610a4b81610a0f565b9050919050565b7f5573657220686173206e6f74207374616b656420616e79204574686572000000600082015250565b6000610a88601d83610969565b9150610a9382610a52565b602082019050919050565b60006020820190508181036000830152610ab781610a7b565b9050919050565b6000610ac982610709565b9150610ad483610709565b9250828201905080821115610aec57610aeb610898565b5b92915050565b600081905092915050565b50565b6000610b0d600083610af2565b9150610b1882610afd565b600082019050919050565b6000610b2e82610b00565b9150819050919050565b7f53656e64696e67204574686572204661696c6564000000000000000000000000600082015250565b6000610b6e601483610969565b9150610b7982610b38565b602082019050919050565b60006020820190508181036000830152610b9d81610b61565b9050919050565b6000604082019050610bb9600083018561077f565b610bc6602083018461077f565b9392505050565b7f20496e73756666696369656e742042616c616e63650000000000000000000000600082015250565b6000610c03601583610969565b9150610c0e82610bcd565b602082019050919050565b60006020820190508181036000830152610c3281610bf6565b9050919050565b7f496e73756666696369656e74207265776172642062616c616e63650000000000600082015250565b6000610c6f601b83610969565b9150610c7a82610c39565b602082019050919050565b60006020820190508181036000830152610c9e81610c62565b9050919050565b6000610cb082610709565b9150610cbb83610709565b9250828203905081811115610cd357610cd2610898565b5b9291505056fea2646970667358221220dd720d93f2c4c154143b8a4dd2456ea571ca72d566b1928cc6cc0b488429e29864736f6c63430008180033",
  "linkReferences": {},
  "deployedLinkReferences": {}
}