{
  "_format": "hh-sol-artifact-1",
  "contractName": "StakingErc20",
  "sourceName": "contracts/StakingErc20.sol",
  "abi": [
    {
      "inputs": [
        {
          "internalType": "address",
          "name": "_tokenAddress",
          "type": "address"
        }
      ],
      "stateMutability": "nonpayable",
      "type": "constructor"
    },
    {
      "anonymous": false,
      "inputs": [
        {
          "indexed": true,
          "internalType": "address",
          "name": "staker",
          "type": "address"
        },
        {
          "indexed": false,
          "internalType": "uint256",
          "name": "amount",
          "type": "uint256"
        },
        {
          "indexed": false,
          "internalType": "uint256",
          "name": "endTime",
          "type": "uint256"
        }
      ],
      "name": "StakedSuccessfully",
      "type": "event"
    },
    {
      "anonymous": false,
      "inputs": [
        {
          "indexed": true,
          "internalType": "address",
          "name": "staker",
          "type": "address"
        },
        {
          "indexed": false,
          "internalType": "uint256",
          "name": "amount",
          "type": "uint256"
        }
      ],
      "name": "WithdrawalSuccessful",
      "type": "event"
    },
    {
      "inputs": [
        {
          "internalType": "address",
          "name": "",
          "type": "address"
        }
      ],
      "name": "balances",
      "outputs": [
        {
          "internalType": "uint256",
          "name": "",
          "type": "uint256"
        }
      ],
      "stateMutability": "view",
      "type": "function"
    },
    {
      "inputs": [],
      "name": "getMyStakes",
      "outputs": [
        {
          "components": [
            {
              "internalType": "uint256",
              "name": "amount",
              "type": "uint256"
            },
            {
              "internalType": "uint256",
              "name": "rewards",
              "type": "uint256"
            },
            {
              "internalType": "uint256",
              "name": "stakeTime",
              "type": "uint256"
            },
            {
              "internalType": "uint256",
              "name": "endTime",
              "type": "uint256"
            },
            {
              "internalType": "bool",
              "name": "isClaimed",
              "type": "bool"
            }
          ],
          "internalType": "struct StakingErc20.Stake[]",
          "name": "",
          "type": "tuple[]"
        }
      ],
      "stateMutability": "view",
      "type": "function"
    },
    {
      "inputs": [
        {
          "internalType": "uint256",
          "name": "_amount",
          "type": "uint256"
        }
      ],
      "name": "stakeTokens",
      "outputs": [],
      "stateMutability": "nonpayable",
      "type": "function"
    },
    {
      "inputs": [
        {
          "internalType": "address",
          "name": "",
          "type": "address"
        },
        {
          "internalType": "uint256",
          "name": "",
          "type": "uint256"
        }
      ],
      "name": "totalStakes",
      "outputs": [
        {
          "internalType": "uint256",
          "name": "amount",
          "type": "uint256"
        },
        {
          "internalType": "uint256",
          "name": "rewards",
          "type": "uint256"
        },
        {
          "internalType": "uint256",
          "name": "stakeTime",
          "type": "uint256"
        },
        {
          "internalType": "uint256",
          "name": "endTime",
          "type": "uint256"
        },
        {
          "internalType": "bool",
          "name": "isClaimed",
          "type": "bool"
        }
      ],
      "stateMutability": "view",
      "type": "function"
    },
    {
      "inputs": [
        {
          "internalType": "uint256",
          "name": "_index",
          "type": "uint256"
        }
      ],
      "name": "withdrawRewardTokens",
      "outputs": [],
      "stateMutability": "nonpayable",
      "type": "function"
    }
  ],
  "bytecode": "0x60806040523480156200001157600080fd5b506040516200144938038062001449833981810160405281019062000037919062000129565b336000806101000a81548173ffffffffffffffffffffffffffffffffffffffff021916908373ffffffffffffffffffffffffffffffffffffffff16021790555080600160006101000a81548173ffffffffffffffffffffffffffffffffffffffff021916908373ffffffffffffffffffffffffffffffffffffffff160217905550506200015b565b600080fd5b600073ffffffffffffffffffffffffffffffffffffffff82169050919050565b6000620000f182620000c4565b9050919050565b6200010381620000e4565b81146200010f57600080fd5b50565b6000815190506200012381620000f8565b92915050565b600060208284031215620001425762000141620000bf565b5b6000620001528482850162000112565b91505092915050565b6112de806200016b6000396000f3fe608060405234801561001057600080fd5b50600436106100575760003560e01c806327e235e31461005c5780637547c7a31461008c57806397a4861a146100a8578063b494d041146100c6578063cb43b2dd146100fa575b600080fd5b61007660048036038101906100719190610a74565b610116565b6040516100839190610aba565b60405180910390f35b6100a660048036038101906100a19190610b01565b61012e565b005b6100b0610505565b6040516100bd9190610c6f565b60405180910390f35b6100e060048036038101906100db9190610c91565b6105e4565b6040516100f1959493929190610ce0565b60405180910390f35b610114600480360381019061010f9190610b01565b610644565b005b60036020528060005260406000206000915090505481565b600073ffffffffffffffffffffffffffffffffffffffff163373ffffffffffffffffffffffffffffffffffffffff160361019d576040517f08c379a000000000000000000000000000000000000000000000000000000000815260040161019490610d90565b60405180910390fd5b600081116101e0576040517f08c379a00000000000000000000000000000000000000000000000000000000081526004016101d790610dfc565b60405180910390fd5b6000600160009054906101000a900473ffffffffffffffffffffffffffffffffffffffff1673ffffffffffffffffffffffffffffffffffffffff166370a08231336040518263ffffffff1660e01b815260040161023d9190610e2b565b602060405180830381865afa15801561025a573d6000803e3d6000fd5b505050506040513d601f19601f8201168201806040525081019061027e9190610e5b565b9050818110156102c3576040517f08c379a00000000000000000000000000000000000000000000000000000000081526004016102ba90610ed4565b60405180910390fd5b600160009054906101000a900473ffffffffffffffffffffffffffffffffffffffff1673ffffffffffffffffffffffffffffffffffffffff166323b872dd3330856040518463ffffffff1660e01b815260040161032293929190610ef4565b6020604051808303816000875af1158015610341573d6000803e3d6000fd5b505050506040513d601f19601f820116820180604052508101906103659190610f57565b5081600360003373ffffffffffffffffffffffffffffffffffffffff1673ffffffffffffffffffffffffffffffffffffffff16815260200190815260200160002060008282546103b59190610fb3565b9250508190555060006040518060a001604052808481526020016000815260200142815260200162278d00426103eb9190610fb3565b8152602001600015158152509050600260003373ffffffffffffffffffffffffffffffffffffffff1673ffffffffffffffffffffffffffffffffffffffff1681526020019081526020016000208190806001815401808255809150506001900390600052602060002090600502016000909190919091506000820151816000015560208201518160010155604082015181600201556060820151816003015560808201518160040160006101000a81548160ff02191690831515021790555050503373ffffffffffffffffffffffffffffffffffffffff167fc0c6063d7e44abff904ab11b5698b1ee294fa272b1052e2f8fb78b6269b1cbb28483606001516040516104f8929190610fe7565b60405180910390a2505050565b6060600260003373ffffffffffffffffffffffffffffffffffffffff1673ffffffffffffffffffffffffffffffffffffffff168152602001908152602001600020805480602002602001604051908101604052809291908181526020016000905b828210156105db57838290600052602060002090600502016040518060a0016040529081600082015481526020016001820154815260200160028201548152602001600382015481526020016004820160009054906101000a900460ff16151515158152505081526020019060010190610566565b50505050905090565b6002602052816000526040600020818154811061060057600080fd5b9060005260206000209060050201600091509150508060000154908060010154908060020154908060030154908060040160009054906101000a900460ff16905085565b6000600260003373ffffffffffffffffffffffffffffffffffffffff1673ffffffffffffffffffffffffffffffffffffffff16815260200190815260200160002080549050116106c9576040517f08c379a00000000000000000000000000000000000000000000000000000000081526004016106c09061105c565b60405180910390fd5b6000600260003373ffffffffffffffffffffffffffffffffffffffff1673ffffffffffffffffffffffffffffffffffffffff168152602001908152602001600020828154811061071c5761071b61107c565b5b906000526020600020906005020190508060040160009054906101000a900460ff161561077e576040517f08c379a00000000000000000000000000000000000000000000000000000000081526004016107759061111d565b60405180910390fd5b80600301544210156107c5576040517f08c379a00000000000000000000000000000000000000000000000000000000081526004016107bc90611189565b60405180910390fd5b60008160000154905060008260030154905060006107ef83603c846107ea91906111d8565b61099f565b9050808460010160008282546108059190610fb3565b925050819055508360000154600360003373ffffffffffffffffffffffffffffffffffffffff1673ffffffffffffffffffffffffffffffffffffffff168152602001908152602001600020600082825461085f9190611209565b92505081905550600160009054906101000a900473ffffffffffffffffffffffffffffffffffffffff1673ffffffffffffffffffffffffffffffffffffffff1663a9059cbb33866001015487600001546108b99190610fb3565b6040518363ffffffff1660e01b81526004016108d692919061123d565b6020604051808303816000875af11580156108f5573d6000803e3d6000fd5b505050506040513d601f19601f820116820180604052508101906109199190610f57565b5060018460040160006101000a81548160ff0219169083151502179055503373ffffffffffffffffffffffffffffffffffffffff167ff4f855c53853d0277a9ff688aadbfe4cb795ca1d5af41704b62cb539f89939ec856001015486600001546109839190610fb3565b6040516109909190610aba565b60405180910390a25050505050565b600080601990506000670de0b6b3a7640000905060006301e1338082866109c69190611266565b6109d091906111d8565b905060008260646109e19190611266565b8285896109ee9190611266565b6109f89190611266565b610a0291906111d8565b90508094505050505092915050565b600080fd5b600073ffffffffffffffffffffffffffffffffffffffff82169050919050565b6000610a4182610a16565b9050919050565b610a5181610a36565b8114610a5c57600080fd5b50565b600081359050610a6e81610a48565b92915050565b600060208284031215610a8a57610a89610a11565b5b6000610a9884828501610a5f565b91505092915050565b6000819050919050565b610ab481610aa1565b82525050565b6000602082019050610acf6000830184610aab565b92915050565b610ade81610aa1565b8114610ae957600080fd5b50565b600081359050610afb81610ad5565b92915050565b600060208284031215610b1757610b16610a11565b5b6000610b2584828501610aec565b91505092915050565b600081519050919050565b600082825260208201905092915050565b6000819050602082019050919050565b610b6381610aa1565b82525050565b60008115159050919050565b610b7e81610b69565b82525050565b60a082016000820151610b9a6000850182610b5a565b506020820151610bad6020850182610b5a565b506040820151610bc06040850182610b5a565b506060820151610bd36060850182610b5a565b506080820151610be66080850182610b75565b50505050565b6000610bf88383610b84565b60a08301905092915050565b6000602082019050919050565b6000610c1c82610b2e565b610c268185610b39565b9350610c3183610b4a565b8060005b83811015610c62578151610c498882610bec565b9750610c5483610c04565b925050600181019050610c35565b5085935050505092915050565b60006020820190508181036000830152610c898184610c11565b905092915050565b60008060408385031215610ca857610ca7610a11565b5b6000610cb685828601610a5f565b9250506020610cc785828601610aec565b9150509250929050565b610cda81610b69565b82525050565b600060a082019050610cf56000830188610aab565b610d026020830187610aab565b610d0f6040830186610aab565b610d1c6060830185610aab565b610d296080830184610cd1565b9695505050505050565b600082825260208201905092915050565b7f41646472657373207a65726f206e6f7420616c6c6f7765640000000000000000600082015250565b6000610d7a601883610d33565b9150610d8582610d44565b602082019050919050565b60006020820190508181036000830152610da981610d6d565b9050919050565b7f416d6f756e74206d757374206265206d6f7265207468616e207a65726f000000600082015250565b6000610de6601d83610d33565b9150610df182610db0565b602082019050919050565b60006020820190508181036000830152610e1581610dd9565b9050919050565b610e2581610a36565b82525050565b6000602082019050610e406000830184610e1c565b92915050565b600081519050610e5581610ad5565b92915050565b600060208284031215610e7157610e70610a11565b5b6000610e7f84828501610e46565b91505092915050565b7f496e73756666696369656e742062616c616e6365000000000000000000000000600082015250565b6000610ebe601483610d33565b9150610ec982610e88565b602082019050919050565b60006020820190508181036000830152610eed81610eb1565b9050919050565b6000606082019050610f096000830186610e1c565b610f166020830185610e1c565b610f236040830184610aab565b949350505050565b610f3481610b69565b8114610f3f57600080fd5b50565b600081519050610f5181610f2b565b92915050565b600060208284031215610f6d57610f6c610a11565b5b6000610f7b84828501610f42565b91505092915050565b7f4e487b7100000000000000000000000000000000000000000000000000000000600052601160045260246000fd5b6000610fbe82610aa1565b9150610fc983610aa1565b9250828201905080821115610fe157610fe0610f84565b5b92915050565b6000604082019050610ffc6000830185610aab565b6110096020830184610aab565b9392505050565b7f596f752068617665206e6f207374616b65730000000000000000000000000000600082015250565b6000611046601283610d33565b915061105182611010565b602082019050919050565b6000602082019050818103600083015261107581611039565b9050919050565b7f4e487b7100000000000000000000000000000000000000000000000000000000600052603260045260246000fd5b7f596f75206861766520616c726561647920636c61696d6564207265776172642060008201527f746f6b656e730000000000000000000000000000000000000000000000000000602082015250565b6000611107602683610d33565b9150611112826110ab565b604082019050919050565b60006020820190508181036000830152611136816110fa565b9050919050565b7f5374616b65207374696c6c206f6e676f696e6700000000000000000000000000600082015250565b6000611173601383610d33565b915061117e8261113d565b602082019050919050565b600060208201905081810360008301526111a281611166565b9050919050565b7f4e487b7100000000000000000000000000000000000000000000000000000000600052601260045260246000fd5b60006111e382610aa1565b91506111ee83610aa1565b9250826111fe576111fd6111a9565b5b828204905092915050565b600061121482610aa1565b915061121f83610aa1565b925082820390508181111561123757611236610f84565b5b92915050565b60006040820190506112526000830185610e1c565b61125f6020830184610aab565b9392505050565b600061127182610aa1565b915061127c83610aa1565b925082820261128a81610aa1565b915082820484148315176112a1576112a0610f84565b5b509291505056fea26469706673582212209cc2d71f60879c183f5c3c99924f87faabf0836d1c7ebce2155f32193f7dafff64736f6c63430008180033",
  "linkReferences": {},
  "deployedLinkReferences": {}
}